:100000000A28FFFFFFFFFFFFFE00030EF9000A08AA
:10001000FA008F2C0B280330E1000230E201E301EB
:10002000E401E501E6000530E701E801E901EA0144
:10003000EB00A03083138400D730BA27203084002F
:100040005330BA27FB0183017B2EFF0000308A006A
:100050007F0882072A28B12F6A2F6F2D3130831233
:100060009F001A308312E000E00B3428043083161E
:100070009F001A308312E000E00B3C280C30831202
:10008000D900043078275A08B7005908B60005305F
:100090003702143003193602031869287B1B6C28B9
:1000A0008316AB0A0319AC0A00302C023230031954
:1000B0002B02031C6C2803307B17FB12AB01AC0135
:1000C0002010A0103421262600304B270030EB27CB
:1000D0006C288316AB01AC01063083123702A530C1
:1000E00003193602031C9128FB1A9428003083164A
:1000F0002A020B300319290203188228A90A0319BE
:10010000AA0A94287B13FB16AD01AE01A901AA012E
:100110002014A0108312B8011030B9000230EB2770
:1001200094288316A901AA018316201C2129A0184E
:100130009B28201DCC284608031DB2288330450289
:10014000031DA828D6304402031DA828013043020D
:100150000318B228C30A0319C40A0319C50A0319EC
:10016000C60AB328A015A01DB82883122E210800A6
:100170002019B528043083123B02BE3003193A021D
:10018000031CC4283C304B2F04303B029D30031924
:100190003A0203180800B528043083123B0293305A
:1001A00003193A020318DD286430CD0A4D02031CFE
:1001B000DE282E218316A014DE28CD0183164608E2
:1001C000031DF62852304502031DEC286530440219
:1001D000031DEC28C13043020318F628C30A031993
:1001E000C40A0319C50A0319C60AF7282015831281
:1001F0003B083902031DFE283A083802031C042973
:100200003B08B9003A08B80004303902AF3003198E
:10021000380203180D293C304B2F04303902CC3002
:1002200003193802031816293C304B2F05303902C8
:10023000A5300319380203181F2950304B2F3C30CA
:100240004B2F8312CD018316C301C401C501C60122
:10025000A011A0102011AD01AE0108001B108316E3
:1002600086118312861108008312D301D400D501B0
:10027000080002306D06031DBD298316201C0800EE
:1002800083120510831605108312851083168510BE
:100290008312051383160513A01D55290330FB1186
:1002A000F001F100F2019F250800A0185929201D36
:1002B00066290130FB11F001F100F201F20A9F25DD
:1002C0000230F001F100F2019F250800FB158312B6
:1002D000AA0A0319AB0A2B082D02031D71292A084B
:1002E0002C02031C7F2905158316051183120512A4
:1002F000831605128312851583168511862905112B
:10030000831605118312051283160512003083121D
:100310002B02C73003192A02031C9029AA01AB0142
:10032000A80A0319A90A7B1AA92900302902C83092
:1003300003192802031C08000030A801A9012D029E
:10034000C73003192C0203187B16AC0A0319AD0A37
:10035000080000302902C83003192802031C0800D5
:100360000130A801A901AC020030031CAD03AD02AD
:100370002C082D0403197B120800FB11AA01AB0104
:10038000A801A9010800831626080319ED292708EA
:10039000031908000230A80A28020318DA290030DD
:1003A000EB270030F02705308316B1008312D3010C
:1003B000D401CA2F193028020318E1292C22D50AAA
:1003C000262E323028020318E7292C22262EB103CC
:1003D0000319A7010230A8000800201E282A831252
:1003E0006D030319FA296C030319FA2983162208ED
:1003F000031908008312AE0A0319AF0A00302F0256
:10040000333003192E02031CDE2900302F02653021
:1004100003192E02031CE529AE01AF018316220841
:1004200003190800A30A0319A40A003024020A30A1
:1004300003192302031C08000230A20134212626DE
:1004400003306C06031908000030EB270030F02F52
:100450008312AE01AF01080002308312D301D40031
:10046000D5010800FB1908005F308500831246089B
:10047000031D5B2A201C3F2A8510831685108312DA
:10048000A01C452A0511831605118312201D4B2A35
:100490008511831685118312A01D512A051283161A
:1004A00005128312201E572A051383160513831283
:1004B0000514831605108312460B732AA01E632AA7
:1004C0008511831685118312201F692A051383164F
:1004D00005138312A01F6F2A0512831605128312BB
:1004E000851483168510023083124606031D7E2A6A
:1004F000211C7D2A851183168511902203308312D9
:100500004606031D892AA11C882A05128316051296
:1005100090228312C60A043046020318C60108005E
:10052000831205158316051108003D3083129F00C4
:100530001A308312E000E00B9B2A83169F011A30C9
:100540008312E000E00BA22A0F308312D901782732
:100550005A08BB005908BA008316201CC42A05306B
:1005600083123B02FF3003193A020318C22AD00A51
:10057000FB305002031C0800D00183162012A70193
:10058000A6010800D0010800063083123B028B3020
:1005900003193A02031CE22AD00A65305002031CF8
:1005A000E32AD001831620122608031DE32A003017
:1005B000EB270030F0278316A601A60AA701A70A99
:1005C000A801E32AD001053083123B0297300319BA
:1005D0003A02031CF42A6530CE0A4E02031C0800BE
:1005E000CE01831620160800CE0108000B2B7F30A9
:1005F0008316BC003330052B62308316BC002730D5
:10060000052B4B308316BC001E30BD00BE0083128C
:100610006608E700162B6608013A0319F72A033A21
:100620000319FC2A013A0319012B162B83163D08E6
:100630008312C30083163C088312C20083163C0851
:100640008312D300D4015408D60083163D088312C8
:100650005302D500031CD6035608D80083163E0863
:1006600083125502D700031CD803580DD80CD70CA1
:1006700083163D0883125707C00083163E07831276
:10068000C10083163C088312BF0008006708031DE1
:100690004C2B861206130800A60A0319A70A430862
:1006A000F000F10127087102031D582B2608700283
:1006B000031C5C2B8612672B4208F000F10127080F
:1006C0007102031D652B2608700203188616400868
:1006D000F000F10127087102031D702B260870023B
:1006E000031C742B061708004108F000F1012708CD
:1006F0007102031D7D2B26087002031C812B06133B
:1007000008003F08F000F10127087102031D8A2B41
:10071000260870020318722BA601A7010800AF2B50
:100720006C0B9B2B6D08031D992B8316201E992B98
:100730009A250030AC2B6C0883160319A82B2208CD
:10074000031DA72B033083126C06031DAD2B8316EC
:10075000A20154249A260130F027CB01B42B4B0878
:10076000053A0319902BB42BCB01CB2B6C0BBC2B74
:10077000C22754249A26C92B6C080330031DC22BB0
:10078000F027C82B6C06031DC92B0330F027C227A6
:100790005424CA01D32B4A08023A0319D32B073A2F
:1007A0000319B62BD32BCA0108000C2C6D08831635
:1007B0000319DE2B22080319E32B83160130A20153
:1007C000EB279227152C83126D0B152C83163708F7
:1007D0003604350434040319EF2B1827152C831223
:1007E0006C08031DFA2B8316201EFA2BA201A20A05
:1007F000A301A4010030EB27152C6D0B152C6C0800
:10080000031D092C8316201E092CA201A20AA30194
:10081000A4010030EB27152C83124C08023A03196F
:10082000FD2B073A0319D62B152CCC010800831297
:100830000619061C522C861C522CC830C50A4502CB
:10084000031C0800C5019F0183169F010810880141
:100850008B131730860007309500850183128501C0
:1008600000304B27831694018312890117308316B9
:1008700096008C158B150B1783128C1105080B1025
:1008800006086400630000000000000083121F14CB
:10089000831608149601831289018B178316081496
:1008A000E5273A2FC50108008312610B5F2C8030C9
:1008B0008A2426267830D300D401D501262E023092
:1008C0006106031D6B2CC0308A2426263830D300E5
:1008D000D401D501262E03306106031D772CE030AC
:1008E0008A2426261830D300D401D501262E0430C0
:1008F0006106031D832CF0308A2426260830D3009D
:10090000D401D501262E05306106031D0800F830FC
:100910008A24262ED300D401D501D50A08008312DB
:100920000C190C110B1D992CA53081000B114623BD
:10093000392183128C1CB92C8C108316CD0A031913
:10094000CE0ACB0A0319CC0A0527043083164B06BE
:100950004C04031DAE2CCB01CC0132220030831697
:100960004E02283003194D02031CB92CCD01CE01D3
:100970007B1483128C1DBE2C8C1105080B1CC22C01
:100980000B1006087A088A00790E8300FE0E7E0E90
:10099000090083120619E82C00303502643003196F
:1009A00034020318D62CB40A0319B50A00303502F4
:1009B0000230031934020318C901643034063504C7
:1009C000031D08006530B400B5010230CC000800FA
:1009D000023049020318EE2CC90A08000030350223
:1009E000033003193402031CFE2C0030350233306F
:1009F000031934020318FE2C0530CC00B401B501F4
:100A0000080006181F2D00303302C83003193202C7
:100A100003180D2DB20A0319B30A00303302023055
:100A2000031932020318C801C83032063304031D0B
:100A30000800C930B200B3010330CB000800023017
:100A400048020318252DC80A08000030330203307D
:100A500003193202031C352D0030330233300319E1
:100A600032020318352D0530CB00B201B301080066
:100A70008618562D00303102C83003193002031891
:100A8000442DB00A0319B10A0030310202300319B3
:100A900030020318C701C83030063104031D0800B6
:100AA000C930B000B1010330CA000800023047026B
:100AB00003185C2DC70A0800003031020330031907
:100AC0003002031C6C2D0030310233300319300228
:100AD00003186C2D0530CA00B001B10108004408AC
:100AE000031D742DC40A0800EF268312E80A0319B7
:100AF000E90AB83068060B3003196906031D822D18
:100B0000E70108000B306902CC3003196802031CAE
:100B100008000430E801E901EA0A6A02031C972D83
:100B2000EA018316201E952D9A250030EB2F6608CA
:100B3000E7000800A201A20AA301A4010800720BA9
:100B4000B12D7008F3007108F400F501F601730887
:100B50008312A0047408A1047508A2047608A304F3
:100B600008007208031D08007108F4007008F30003
:100B7000F309F4097308F5007408F6000030F61B59
:100B8000FF30F700F80075088312A0057608A1056C
:100B90007708A2057808A3050800D6011A30831249
:100BA000D500D50BD12D00000000000000008312FD
:100BB0009F149F1CE22D64008312D60BD92DD30104
:100BC000D40108001E08D700D801D70ED80EF03087
:100BD000D80557080F39D804F030D70583161E0EF4
:100BE0000F398312D7070318D80A5808D4005708BA
:100BF000D30008008312660B082E0630D300D40100
:100C0000D5012626D301D30AD401D501D50A262E33
:100C100002306606031D172E0530D300D401D5011E
:100C200026260230D300D401D501D50A262E033062
:100C30006606031D08000330D300D401D501262623
:100C40000430D300D401D501D50A262E550B372EFA
:100C50005308D6005408D700D801D9015608A0047B
:100C60005708A1045808A2045908A304080055080D
:100C7000031D08005408D7005308D600D609D70929
:100C80005608D8005708D9000030D91BFF30DA00C9
:100C9000DB005808A0055908A1055A08A2055B0801
:100CA000A30508003E08031D572EBE0A0800E30AEC
:100CB0000319E40AB83063060B3003196406031DF8
:100CC000632EE20108000B306402CC30031963028A
:100CD000031C08000430E301E401E50A6502031C7B
:100CE000782EE5018316201E762E9A250030F02FEF
:100CF0006108E200080000006400703083168F0075
:100D00003A27D1279D27E527D8276400C0308B04D8
:100D1000831608140030EB270030F02764007B1C9A
:100D20008E2E7B10FB27FA27DF2786275B272927B4
:100D3000C3218E2E610B9E2E2430BC000230610632
:100D4000031DA42E3330BC0003306106031DAA2E00
:100D50004230BC0004306106031DB02E5130BC008F
:100D600005306106031DB62E6030BC006108E2004C
:100D700008003E08031DC22EE830A4000330A50081
:100D8000BE0A0800E30A0319E40A2408250403192B
:100D900008000130A4020030031CA503A5022408AA
:100DA0002504031D08000030F02F8316201CD92EC7
:100DB000EA2E26080319080083124C08031DE52EAD
:100DC0004B0803194A08031908008316A701A70A4C
:100DD000A801EA2E8312CC01CB01CA0108008316B8
:100DE0003708360435043404031908000130B4020E
:100DF0000030031C0130B5020030031C0130B60284
:100E00000030031C0130B702080083126208031D82
:100E10000B2F85120800BD0A3D0B0F2F85163D08CC
:100E20003C060319851264303D020318BD01080019
:100E300004308312E60A6602031C202FE601E60A4C
:100E400001308316B701B601B500F430B400FA25BD
:100E5000F62A6D08031D372F6C08031D372F8316E4
:100E60002208031D372F2708031D372F172C831245
:100E7000C5010800850183128501870189011730AA
:100E80008316860083128601103083169400073083
:100E9000950096010800D3005308031D532F1B1023
:100EA0008316861508001B1C1B14831686118312DB
:100EB0005308960008006C088400043004020318EC
:100EC000080007308A00F530040782000800522E1F
:100ED000A82FB92E4408031D0800B1270030F027C1
:100EE00020308316BA000330BB008312C40A080006
:100EF000DC00DD015908D300CD255408DF0053087C
:100F0000DE005F08DA005E08D90008006D08031DE6
:100F10008A2FB1276D0B8D2F6F2502306D06031DB3
:100F200008006A2F6608E70001308316B701B60192
:100F3000B500F430B400FA25F62AFA308316920090
:100F400083128C1083168C141C30831292000800BC
:100F5000F830E301E401E501E201D300D401D50159
:100F6000262E0730E801E901EA01E701D300D401A8
:100F7000D501262E64008001840A0406031900347A
:100F80000406BB2F0630E10A6102031C0800E101E0
:100F9000E10A08005308A0005408A100A201A3011F
:100FA00008008101A530831281000B118B16080007
:100FB000603083129B009A01633099000800C924B5
:100FC00001253825D526D5238F2B3D3083129F0050
:100FD00083169F0108008312D300ED00C4010800AE
:100FE0008312D300EC00BE010800682F672F662F24
:100FF000692FA82F2E28952AFFFFFFFFFFFFFFFF75
:00000001FF
