:100000000A28FFFFFFFFFFFFFE00030EF9000A08AA
:10001000FA004D2C0B280330E1000230E201E3012D
:10002000E401E501E6000530E701E801E901EA0144
:10003000EB00A03083138400D730A3272030840046
:100040005330A327FB018301642EFF0000308A0098
:100050007F0882072A289A2F532F2D2D31308312A3
:100060009F001A308312E000E00B3428043083161E
:100070009F001A308312E000E00B3C280C30831202
:10008000D900043061275A08B7005908B600053076
:100090003702143003193602031869287B1B6C28B9
:1000A0008316AB0A0319AC0A00302C023230031954
:1000B0002B02031C6C2803307B17FB12AB01AC0135
:1000C0002010A0103421E425003034270030D4273C
:1000D0006C288316AB01AC01063083123702A530C1
:1000E00003193602031C9128FB1A9428003083164A
:1000F0002A020B300319290203188228A90A0319BE
:10010000AA0A94287B13FB16AD01AE01A901AA012E
:100110002014A0108312B8011030B9000230D42787
:1001200094288316A901AA018316201C2129A0184E
:100130009B28201DCC284608031DB2288330450289
:10014000031DA828D6304402031DA828013043020D
:100150000318B228C30A0319C40A0319C50A0319EC
:10016000C60AB328A015A01DB82883122E210800A6
:100170002019B528043083123B02BE3003193A021D
:10018000031CC4283C30342F04303B029D3003193B
:100190003A0203180800B528043083123B0293305A
:1001A00003193A020318DD286430CD0A4D02031CFE
:1001B000DE282E218316A014DE28CD0183164608E2
:1001C000031DF62852304502031DEC286530440219
:1001D000031DEC28C13043020318F628C30A031993
:1001E000C40A0319C50A0319C60AF7282015831281
:1001F0003B083902031DFE283A083802031C042973
:100200003B08B9003A08B80004303902AF3003198E
:10021000380203180D293C30342F04303902CC3019
:1002200003193802031816293C30342F05303902DF
:10023000A5300319380203181F295030342F3C30E1
:10024000342F8312CD018316C301C401C501C60139
:10025000A011A0102011AD01AE0108001B108316E3
:1002600086118312861108008312D301D400D501B0
:10027000080002306D06031DBD298316201C0800EE
:1002800083120510831605108312851083168510BE
:100290008312051383160513A01D55290330FB1186
:1002A000F001F100F2015D250800A0185929201D78
:1002B00066290130FB11F001F100F201F20A5D251F
:1002C0000230F001F100F2015D250800FB158312F8
:1002D000AA0A0319AB0A2B082D02031D71292A084B
:1002E0002C02031C7F2905158316051183120512A4
:1002F000831605128312851583168511862905112B
:10030000831605118312051283160512003083121D
:100310002B02C73003192A02031C9029AA01AB0142
:10032000A80A0319A90A7B1AA92900302902C83092
:1003300003192802031C08000030A801A9012D029E
:10034000C73003192C0203187B16AC0A0319AD0A37
:10035000080000302902C83003192802031C0800D5
:100360000130A801A901AC020030031CAD03AD02AD
:100370002C082D0403197B120800FB11AA01AB0104
:10038000A801A9010800831626080319ED292708EA
:10039000031908000230A80A28020318DA290030DD
:1003A000D4270030D92705308316B1008312D3013A
:1003B000D401B32F193028020318E1292C22D50AC1
:1003C000E42D323028020318E7292C22E42DB10352
:1003D0000319A7010230A8000800201E282A831252
:1003E0006D030319FA296C030319FA2983162208ED
:1003F000031908008312AE0A0319AF0A00302F0256
:10040000333003192E02031CDE2900302F02653021
:1004100003192E02031CE529AE01AF018316220841
:1004200003190800A30A0319A40A003024020A30A1
:1004300003192302031C08000230A2013421E42521
:1004400003306C06031908000030D4270030D92F80
:100450008312AE01AF01080002308312D301D40031
:10046000D5010800FB1908005F308500831246089B
:10047000031D5B2A201C3F2A8510831685108312DA
:10048000A01C452A0511831605118312201D4B2A35
:100490008511831685118312A01D512A051283161A
:1004A00005128312201E572A051383160513831283
:1004B0000514831605108312460B732AA01E632AA7
:1004C0008511831685118312201F692A051383164F
:1004D00005138312A01F6F2A0512831605128312BB
:1004E000851483168510023083124606031D7E2A6A
:1004F000211C7D2A851183168511902203308312D9
:100500004606031D892AA11C882A05128316051296
:1005100090228312C60A043046020318C60108005E
:10052000831205158316051108003D3083129F00C4
:100530001A308312E000E00B9B2A83169F011A30C9
:100540008312E000E00BA22A0F308312D901612749
:100550005A08BB005908BA008316201CC42A05306B
:1005600083123B02FF3003193A020318C22AD00A51
:10057000FB305002031C0800D00183162012A70193
:10058000A6010800D0010800063083123B028B3020
:1005900003193A02031CE22AD00A65305002031CF8
:1005A000E32AD001831620122608031DE32A003017
:1005B000D4270030D9278316A601A60AA701A70AC7
:1005C000A801E32AD001053083123B0297300319BA
:1005D0003A02031CF42A6530CE0A4E02031C0800BE
:1005E000CE01831620160800CE0108000B2B7F30A9
:1005F0008316BC003330052B62308316BC002730D5
:10060000052B4B308316BC001E30BD00BE0083128C
:100610006608E700162B6608013A0319F72A033A21
:100620000319FC2A013A0319012B162B83163D08E6
:100630008312C30083163C088312C20083163C0851
:100640008312D300D4015408D60083163D088312C8
:100650005302D500031CD6035608D80083163E0863
:1006600083125502D700031CD803580DD80CD70CA1
:1006700083163D0883125707C00083163E07831276
:10068000C10083163C088312BF0008006708031DE1
:100690004C2B861206130800A60A0319A70A430862
:1006A000F000F10127087102031D582B2608700283
:1006B000031C5C2B8612672B4208F000F10127080F
:1006C0007102031D652B2608700203188616400868
:1006D000F000F10127087102031D702B260870023B
:1006E000031C742B061708004108F000F1012708CD
:1006F0007102031D7D2B26087002031C812B06133B
:1007000008003F08F000F10127087102031D8A2B41
:10071000260870020318722BA601A7010800AF2B50
:100720006C0B9B2B6D08031D992B8316201E992B98
:1007300058250030AC2B6C0883160319A82B22080F
:10074000031DA72B033083126C06031DAD2B8316EC
:10075000A201122483260130D927CB01B42B4B08E8
:10076000053A0319902BB42BCB01CB2B6C0BBC2B74
:10077000AB2712248326C92B6C080330031DC22B20
:10078000D927C82B6C06031DC92B0330D927AB27EB
:100790001224CA01D32B4A08023A0319D32B073A71
:1007A0000319B62BD32BCA01080083120619061CA5
:1007B000102C861C102CC830C50A4502031C0800EA
:1007C000C5019F0183169F01081088018B13173004
:1007D000860007309500850183128501003034279B
:1007E00083169401831289011730831696008C15A5
:1007F0008B150B1783128C1105080B10060864006B
:10080000630000000000000083121F148316081408
:100810009601831289018B1783160814CE27232F84
:10082000C50108008312610B1D2C80304824E4258B
:100830007830D300D401D501E42D02306106031DC8
:10084000292CC0304824E4253830D300D401D50108
:10085000E42D03306106031D352CE0304824E425E7
:100860001830D300D401D501E42D04306106031DF6
:10087000412CF0304824E4250830D300D401D501C0
:10088000E42D05306106031D0800F8304824E42DEE
:10089000D300D401D501D50A080083120C190C111C
:1008A0000B1D572CA53081000B11462339218312D3
:1008B0008C1C772C8C108316CD0A0319CE0ACB0A18
:1008C0000319CC0AEE26043083164B064C04031D94
:1008D0006C2CCB01CC013222003083164E02283022
:1008E00003194D02031C772CCD01CE017B1483121A
:1008F0008C1D7C2C8C1105080B1C802C0B10060801
:100900007A088A00790E8300FE0E7E0E090083129B
:100910000619A62C0030350264300319340203187E
:10092000942CB40A0319B50A0030350202300319B9
:1009300034020318C901643034063504031D08006D
:100940006530B400B5010230CC0008000230490225
:100950000318AC2CC90A0800003035020330031913
:100960003402031CBC2C003035023330031934022E
:100970000318BC2C0530CC00B401B50108000618E2
:10098000DD2C00303302C830031932020318CB2C9F
:10099000B20A0319B30A00303302023003193202DB
:1009A0000318C801C83032063304031D0800C930DB
:1009B000B200B3010330CB00080002304802031834
:1009C000E32CC80A08000030330203300319320256
:1009D000031CF32C003033023330031932020318A6
:1009E000F32C0530CB00B201B30108008618142D9A
:1009F00000303102C830031930020318022DB00A4A
:100A00000319B10A00303102023003193002031811
:100A1000C701C83030063104031D0800C930B000DA
:100A2000B1010330CA0008000230470203181A2D32
:100A3000C70A080000303102033003193002031CDA
:100A40002A2D0030310233300319300203182A2DC9
:100A50000530CA00B001B10108004408031D322D61
:100A6000C40A0800D8268312E80A0319E90AB83034
:100A700068060B3003196906031D402DE7010800C5
:100A80000B306902CC3003196802031C08000430E3
:100A9000E801E901EA0A6A02031C552DEA018316FE
:100AA000201E532D58250030D42F6608E70008007B
:100AB000A201A20AA301A4010800720B6F2D700805
:100AC000F3007108F400F501F60173088312A00425
:100AD0007408A1047508A2047608A304080072082B
:100AE000031D08007108F4007008F300F309F4090D
:100AF0007308F5007408F6000030F61BFF30F700AD
:100B0000F80075088312A0057608A1057708A205EC
:100B10007808A3050800D6011A308312D500D50B3A
:100B20008F2D000000000000000083129F149F1C06
:100B3000A02D64008312D60B972DD301D401080099
:100B40001E08D700D801D70ED80EF030D8055708A8
:100B50000F39D804F030D70583161E0E0F398312D3
:100B6000D7070318D80A5808D4005708D30008003C
:100B70008312660BC62D0630D300D401D501E425BF
:100B8000D301D30AD401D501D50AE42D023066067B
:100B9000031DD52D0530D300D401D501E425023045
:100BA000D300D401D501D50AE42D03306606031D18
:100BB00008000330D300D401D501E4250430D3006C
:100BC000D401D501D50AE42D550BF52D5308D600D7
:100BD0005408D700D801D9015608A0045708A10429
:100BE0005808A2045908A30408005508031D08006A
:100BF0005408D7005308D600D609D7095608D8009C
:100C00005708D9000030D91BFF30DA00DB00580844
:100C1000A0055908A1055A08A2055B08A30508000C
:100C2000302E6D0883160319192E220803191E2E63
:100C300083160130A201D4277B27392E83126D0B36
:100C4000392E6C08031D2B2E8316201E2B2EA2017D
:100C5000A20AA301A4010030D427392E0127392E7E
:100C600083124C08023A03192E2E073A0319112E4B
:100C7000392ECC0108003E08031D402EBE0A080094
:100C8000E30A0319E40AB83063060B30031964065B
:100C9000031D4C2EE20108000B306402CC30031916
:100CA0006302031C08000430E301E401E50A650265
:100CB000031C612EE5018316201E5F2E582500308F
:100CC000D92F6108E200080000006400703083162C
:100CD0008F002327BA278627CE27C1276400C0307C
:100CE0008B04831608140030D4270030D927640001
:100CF0007B1C772E7B10E427E327C8276F27442728
:100D00001227C321772E610B872E2430BC000230BE
:100D10006106031D8D2E3330BC0003306106031DB8
:100D2000932E4230BC0004306106031D992E5130D1
:100D3000BC0005306106031D9F2E6030BC006108B9
:100D4000E20008003E08031DAB2EE830A40003308B
:100D5000A500BE0A0800E30A0319E40A24082504D2
:100D6000031908000130A4020030031CA503A502EA
:100D700024082504031D08000030D92F8316201CE9
:100D8000C22ED32E26080319080083124C08031D17
:100D9000CE2E4B0803194A08031908008316A70131
:100DA000A70AA801D32E8312CC01CB01CA010800E7
:100DB000831637083604350434040319080001305B
:100DC000B4020030031C0130B5020030031C0130B6
:100DD000B6020030031C0130B7020800831262081B
:100DE000031DF42E85120800BD0A3D0BF82E851652
:100DF0003D083C060319851264303D020318BD010D
:100E0000080004308312E60A6602031C092FE6017B
:100E1000E60A01308316B701B601B500F430B4001C
:100E2000B825F62A6D08031D202F6C08031D202FFE
:100E300083162208031D202F2708031D202FD52BE2
:100E40008312C5010800850183128501870189018C
:100E500017308316860083128601103083169400A3
:100E60000730950096010800D3005308031D3C2F5E
:100E70001B108316861508001B1C1B148316861175
:100E800083125308960008006C08840004300402A2
:100E90000318080007308A00DE30040782000800CB
:100EA0003B2E912FA22E4408031D08009A270030E4
:100EB000D92720308316BA000330BB008312C40A3E
:100EC0000800DC00DD015908D3008B255408DF0041
:100ED0005308DE005F08DA005E08D90008006D08DC
:100EE000031D732F9A276D0B762F2D2502306D066B
:100EF000031D0800532F6608E70001308316B70171
:100F0000B601B500F430B400B825F62AFA308316DD
:100F1000920083128C1083168C141C308312920062
:100F20000800F830E301E401E501E201D300D40157
:100F3000D501E42D0730E801E901EA01E701D3001A
:100F4000D401D501E42D64008001840A040603194C
:100F500000340406A42F0630E10A6102031C0800D5
:100F6000E101E10A08005308A0005408A100A20111
:100F7000A30108008101A530831281000B118B169B
:100F80000800603083129B009A01633099000800CA
:100F90008724BF24F624BE2610268F2B3D308312D3
:100FA0009F0083169F0108008312D300ED00C40147
:100FB00008008312D300EC00BE010800512F502F0F
:100FC0004F2F522F912F2E28952AFFFFFFFFFFFF53
:100FD000FFFFFFFFFFFFFFFFFFFFFFFFFFFFFFFF21
:100FE000FFFFFFFFFFFFFFFFFFFFFFFFFFFFFFFF11
:100FF000FFFFFFFFFFFFFFFFFFFFFFFFFFFFFFFF01
:00000001FF
